:020000040800F2
:1000000010080020110300082B320008C531000839
:10001000293200083B1E0008A93700080000000034
:100020000000000000000000000000002F32000867
:10003000F91E0008000000002D32000831320008CF
:100040002B0300082B0300082B0300082B030008D8
:100050002B0300082B0300082B0300082B030008C8
:100060002B0300082B0300082B0300082B030008B8
:100070002B0300082B0300082B0300082B030008A8
:100080003D1E0008491E00082B0300082B03000832
:100090002B0300082B0300082B0300082B03000888
:1000A0002B0300082B0300082B0300082B03000878
:1000B0002B0300082B0300082B0300082B03000868
:1000C0002B0300082B0300082B0300082B03000858
:1000D0002B0300082B0300089D3700082B030008A2
:1000E0002B0300082B0300082B0300082B03000838
:1000F0002B0300082B0300082B0300082B03000828
:100100002B0300082B0300082B0300082B03000817
:100110002B0300082B0300082B0300082B03000807
:100120002B0300082B0300082B0300082B030008F7
:100130002B03000800000000000000002B03000853
:100140002B0300082B0300082B0300082B030008D7
:100150002B0300082B0300082B0300082B030008C7
:100160002B0300082B0300082B0300082B030008B7
:100170002B0300082B0300082B03000800000000DD
:10018000000000002B030008000000000000000039
:100190002B03000800000000000000002B030008F3
:1001A0000000000000000000000000002B03000819
:1001B0002B0300082B0300082B0300082B03000867
:1001C0002B03000800F002F800F092F80AA090E873
:1001D000000C82448344AAF10107DA4501D100F002
:1001E00087F8AFF2090EBAE80F0013F0010F18BF3D
:1001F000FB1A43F001031847003A0000203A0000C0
:10020000103A24BF78C878C1FAD8520724BF30C842
:1002100030C144BF04680C60704700000023002414
:1002200000250026103A28BF78C1FBD8520728BF06
:1002300030C148BF0B6070476E2900F03F827029C3
:1002400000F08183662903F04584652903F0428428
:10025000672903F03F84612903F03E8403681B0A89
:1002600028BF41F08001692900F0EC81642900F089
:10027000E981752900F0E6816F2900F00E83782965
:1002800000F04D83E92900F0A982E42900F0A6825C
:10029000F52900F0A382EF2900F00B83F82900F084
:1002A0004C830368DB0928BF41F08001632901F01A
:1002B0008180732901F08680E32901F09180F32980
:1002C00001F09680002070471FB503F0FEFB01F09F
:1002D000E1F804000020002103F06AFB401C60608C
:1002E0000020002103F04EFBE0601FBD10B510BDE3
:1002F00001F0A2F81146FFF7E7FF03F085FA01F0DD
:100300007FF903B4FFF7F2FF03BC01F0C7F9000067
:100310000948804709480047FEE7FEE7FEE7FEE799
:10032000FEE7FEE7FEE7FEE7FEE7FEE704480549D5
:10033000054A064B70470000D5320008C501000889
:1003400010020020100800201004002010040020DB
:1003500053EA020C00F069802DE9F04B4FF00006E3
:10036000002B1FBFB3FA83F503FA05F424FA05F650
:100370005E4012BF1643B2FA82F502FA05F4C5F1E7
:1003800020051EBF22FA05FC44EA0C04203556EA7B
:10039000044C4FEA144418BF641C4FF000084FF09F
:1003A0000009904271EB030C39D3002919BFB1FA4F
:1003B00081F701FA07F6B0FA80F700FA07F6C7F1FD
:1003C00020071EBF20FA07FC46EA0C062037B6FBC2
:1003D000F4FCA7EB0507103F07F01F0BCBF120063D
:1003E0000CFA0BFB2CFA06F644BFB3460026202F6E
:1003F000A4BF5E464FF0000B5BEA060C08BF4FF04F
:10040000010B19EB0B09ABFB027C48EB0608C01B88
:1004100006FB02CC0BFB03CC71EB0C01C1E70B46D6
:10042000024641464846BDE8F08B13B54FF0000048
:100430004FF00001AFF30080BDE81C4070470000A2
:100440001CB50C46064B7B4469460090204600F0E4
:100450004EF904460020694600F05CF920461CBDB8
:10046000CB02000010B5431C02E010F8011B71B173
:100470008107FAD14FF0013202C88C1A8C4314EA7A
:10048000C211F9D0C01A0A0603D0C01E10BDC01A8E
:1004900010BD0A0401D0801E10BD0902FCD0401E10
:1004A00010BD032A40F2308010F0030C00F01580DC
:1004B00011F8013BBCF1020F624498BF11F801CB67
:1004C00000F8013B38BF11F8013BA2F1040298BFCC
:1004D00000F801CB38BF00F8013B11F0030300F036
:1004E0000183083AC0F0088051F8043B083A51F8FB
:1004F00004CBA0E80810F5E7121D5CBF51F8043BDF
:1005000040F8043BAFF30080D20724BF11F8013B51
:1005100011F801CB48BF11F8012B24BF00F8013BB3
:1005200000F801CB48BF00F8012B70474FF00002E4
:1005300000B5134694469646203922BFA0E80C50D9
:10054000A0E80C50B1F12001BFF4F7AF090728BFB4
:10055000A0E80C5048BF0CC05DF804EB890028BF30
:1005600040F8042B08BF704748BF20F8022B11F059
:10057000804F18BF00F8012B7047704770477047D5
:1005800070B5044685690068C10601D5302600E0D3
:100590002026C00707D070BDD4E90121304690471E
:1005A000206A401C20626D1EF6D570BD70B50446F1
:1005B00085690078C00707D170BDD4E901212020EA
:1005C0009047206A401C20626D1EF6D570BD0968F8
:1005D0004A0501D540B27047C905FCD500B2704745
:1005E00009684A0501D5C0B27047C905FCD580B27B
:1005F000704770B50C460546012A05D0287880065C
:1006000000D5EA69002302E0012305E05B1C934268
:1006100002D2E05C0028F9D1A869E618C01AA861E6
:10062000286A184428622846FFF7AAFF04E0D5E9A3
:10063000012114F8010B9047B442F8D32846FFF784
:10064000B5FF70BD2DE9F0410646002410687529FC
:10065000314616A510D0FFF7BAFF002802DA404253
:1006600013A507E031688A0701D512A502E0490702
:1006700004D511A5012401E0FFF7B2FF00210A22F1
:1006800006F1240709E0B0FBF2FCB0FBF2F302FB39
:100690001C00303078541846491C0028F3D12346FA
:1006A0002A463046BDE8F04100F093BA0000000051
:1006B0002D0000002B0000002000000011680268DF
:1006C000006A530501D508700AE0D30501D50880FA
:1006D00006E0130603D5C217C1E9000200E0086076
:1006E0000120704701694A1C02610878704700B513
:1006F0008FB0CDE901310021059105497944CDE95B
:1007000003101146684600F029F90FB000BD000043
:10071000E5FFFFFF0A6802F8010B0A60704700005E
:100720002DE9FF5F15468A460446DFF8AC80F844A1
:100730000027D8E900103E46CDE9001010E03AF855
:1007400016106A4602A800F057FE411C07D0217817
:10075000890603D5E269391891420DD80744761C01
:100760002078800602D5E069B84205DDAE42E6DBBE
:100770003AF816000028E2D1A069C01BA06120460B
:10078000FFF7FEFED8E90010CDE90010002017E0C9
:100790003AF818106A4602A800F02EFEB0F1FF3FAA
:1007A00081460BD000250DF1080B05E0D4E90121AD
:1007B0001BF8050090476D1C4D45F7D308F101006B
:1007C000B0428046E4DB206A384420622046FFF7CE
:1007D000EDFEBDE8FF9F0000CA3300002DE9F041A7
:1007E0008046D21D22F007020025D2E90002F52939
:1007F00015A614D0011E72F1000106DA0023D0EB19
:10080000030063EB020211A608E0D8F800108B0782
:1008100001D50FA602E0490701D50EA60125114614
:10082000002408F1240704E000F08EF930323A5534
:10083000641C50EA0102F7D12B463246214640465D
:10084000BDE8F04100F0C5B9000000002D00000037
:100850002B0000002000000030B4002100F124042F
:1008600008E002F00705D208303542EA4372DB089F
:100870006554491C52EA0305F3D10468002310A211
:10088000250707D5A40600D421B1C46901230DA210
:10089000641EC46130BC00F09CB910B5044621460A
:1008A0001068FFF79DFE02462046BDE81040002379
:1008B000D2E7D21D22F00701D1E90023CCE70000E6
:1008C0000000000030000000F0B40D46018809056A
:1008D00002D5214C7C4402E01F4C7C440E340021A4
:1008E00000F1240608E002F00F071209E75D42EA72
:1008F00003721B097754491C52EA0307F3D10278AB
:100900000023120704D5702D06D009B1022311343B
:100910002246F0BC00F05DB901231034F8E770B551
:1009200004460D4621461068FFF75AFE0246294646
:100930002046BDE870400023C6E7D21D22F0070321
:10094000D3E90023C0E70368126843F02003036083
:100950000823C3610023B7E72C3200002DE9F05FC4
:10096000894604464FF0000ADFF874B1FB44C0F832
:1009700020A02046E1688847002874D0252806D0AA
:10098000D4E901219047206A401C2062F1E700264B
:100990005F462046E16888472028054607DB312D61
:1009A00005D2781910F8200C08B10643F1E7B0071A
:1009B00001D526F00406C4F81CA00027C4F818A02E
:1009C0002A2D09D0284602F018FF38B304EB870817
:1009D000303DC8F8185019E059F8041B204604EBC4
:1009E00087029161E1688847012F054618D1E069C7
:1009F000002820DA26F020061DE0D8F8180000EBC9
:100A0000800005EB40003038C8F818002046E16847
:100A10008847054602F0F1FE0028EED1012F0AD0EA
:100A20002E2D08D12046E16888477F1C0546022FFD
:100A300046F02006C4DBA069002803DA404246F0F5
:100A40000106A061F00701D026F010066C2D0BD036
:100A5000682D09D04C2D39D06A2D35D0742D35D064
:100A60007A2D33D016E038E0E1682F4620468847DB
:100A7000B842054609D16C2F26D04FF48060E1685A
:100A8000064320468847054604E06C2F1AD04FF4F1
:100A9000807006430DB3A5F14100192802D8203516
:100AA00046F400664A462946204626604E46FFF731
:100AB000C3FB80B101280BD0F61D26F0070000F122
:100AC000080956E74020E4E78020D8E70020D6E771
:100AD00006F104094DE7284652E7206ABDE8F09F79
:100AE000BC31000010B5203AC0F00B80B1E81850BE
:100AF000203AA0E81850B1E81850A0E81850BFF408
:100B0000F5AF5FEA027C24BFB1E81850A0E81850A6
:100B100044BF18C918C0BDE810405FEA827C24BFFA
:100B200051F8043B40F8043B08BF7047D20728BF88
:100B300031F8023B48BF11F8012B28BF20F8023BD7
:100B400048BF00F8012B704730B5B0F10A024FEAF8
:100B5000900E71F100034EEA817EB0EB0E0061EB66
:100B600091014FEA101E4EEA017E10EB0E0041EBA0
:100B700011114FEA102E4EEA016E10EB0E0041EB00
:100B800011214FEA104E4EEA014E10EB0E0041EBE0
:100B90001141401841F100014FEAD00040EA417094
:100BA0004FEAD10110EB80054FEA810444EA9074CA
:100BB00044EB01046D1944EB0404521BA3414FF0B4
:100BC000000348BF0A3200D530BD401C41F100018E
:100BD00030BD2DE9F0470D4699469246044600F196
:100BE00024080168880604D5E06921F0100121601D
:100BF00000E00120A84201DD471B00E00027A169B9
:100C00007A1902EB0900081AA0612078C00602D404
:100C10002046FFF7B5FC002608E0D4E901211AF8C8
:100C200006009047206A401C761C20624E45F4DB8B
:100C30002078C0060AD52046FFF7A2FC06E0D4E9DA
:100C4000012130209047206A401C2062381EA7F105
:100C50000107F4DC07E0D4E9012118F8050090470A
:100C6000206A401C2062281EA5F10105F3DC204605
:100C7000FFF79CFC2078000602D50220BDE8F08733
:100C80000120FBE770472DE9FF4F0C461E464FF051
:100C9000FF378BB0D2E90001DDF860800A908A4608
:100CA000C1F30A5505B93D46002108464FF0000042
:100CB000BAF1000F00F4400005DA00EB80004FF4B9
:100CC000400101EA50004FEA9059B9F1010F00DDEF
:100CD000B9460A9850EA4A000ED044F61050A5F2E0
:100CE000FF3545432F14B8F1000F1ED07542291E61
:100CF0001EDDC9F100021CE0B8F1010F4FF0000049
:100D000001D0302103E0F24305E02154401CB04201
:100D1000FBDB30460022002121540B99C1F80880EA
:100D2000C1E900200FB0BDE8F08FBD1B6D1CDEE7F0
:100D30004A4600DA694206A800F0F0FB06AB93E8E9
:100D4000070003AB83E8070050460A9900F0ADFCAA
:100D50008DE80700A0F500501F3800900398002D83
:100D60000ADD42F21F014A460844002303A903900A
:100D7000684600F016FF09E0A0F500504A461F380B
:100D8000002303A90390684600F020FF8DE80700C8
:100D90000004000C03D04FF0FF30410800E0104683
:100DA000B8F1000F03D00022009215461EE0751E18
:100DB00005D4FFF7C9FE303262556D1EF9D5B34632
:100DC0000122084302D000227F1C04E02078302852
:100DD00001D100227F1E002A099784D01DE0112D29
:100DE00007DAFFF7B1FE303262556D1C50EA01029E
:100DF000F5D1084302D00098C8B10EE00021681E6A
:100E000005E0235C625C63542254401E491C81420D
:100E1000F7DBAB46A81B401E0990002004F80B002E
:100E20000B98099AC0F80880C0E9002B7AE71126D0
:100E30004FF0000857E72DE9F04F88460446D21DD1
:100E400022F0070191B0D1E90001CDE90A0102F0D9
:100E5000ACFC02460B98C00F01D02D2007E02068A3
:100E6000810701D52B2002E0202101EAC000032ADE
:100E7000099001D0072A05DB03464146204600F0D1
:100E80000DFB0BE12078800601D5E06900E006202B
:100E9000B8F1650F814606D0B8F1660F18D0B8F1E9
:100EA000670F70D131E00020B9F1110F009001DB24
:100EB000112301E009F101030AAA01A90CA8FFF717
:100EC000E2FEDDE90C70002609F10105834647E0EA
:100ED00001204B4600904FF000470AAA01A90CA838
:100EE000FFF7D1FEDDE90DB00C995D46002610B983
:100EF00009F101000D18B9EB050003D4C0F1FF366C
:100F000009F10105A5EB09002BE0B9F1010F01DAA8
:100F10004FF001090020B9F1110F0090484601DDA2
:100F2000112300E003460AAA01A90CA8FFF7ABFEB3
:100F3000DDE90C704D4600268346207800070AD470
:100F4000AB4500DA5D4601A8012D04DD411911F819
:100F5000011C302907D04F4502DA17F1040F04DADB
:100F6000012082460FE06D1EEEE7002F02DCED1B34
:100F70003E4403E0781CA84200DD7D1CB81B00F154
:100F8000010A4FF000472078000703D4AA4501DB8F
:100F90004FF0FF3A0021B7F1004F0DF143088DF8F3
:100FA000431024D002202B23002F01DA7F422D236F
:100FB0000A21021EA0F1010000DC5FB197FBF1FCE9
:100FC00097FBF1F201FB1C7C17460CF1300C08F882
:100FD00001CDEEE7A8F1010003702188090501D5D4
:100FE000452100E06521A0F1010800F8011C0998E5
:100FF0000FA9A1EB0807FF1D00B10120411901EB6A
:10100000EA70A1693844081A401EA0612078C00621
:1010100002D42046FFF7B4FA099828B1D4E9012197
:101020009047206A401C20622078C00622D52046C6
:10103000FFF7A6FA1EE0002E04DBB34502DD01A88F
:10104000805D00E03020D4E901219047206A401CF7
:101050002062761CAAF101005FEA000A0AD100F0C2
:1010600019FAC0680168405CD4E901219047206A00
:10107000401C2062281EA5F10105DCDC07E0D4E954
:10108000012118F8010B9047206A401C2062381E8D
:10109000A7F10107F3DC2046FFF788FA032011B01F
:1010A00041E600002DE9F04F04460D46D21D22F026
:1010B000070089B0D0E900974846394602F075FB31
:1010C0000246F80F01D02D2307E02068810701D5E3
:1010D0002B2302E0202101EAC0038DF820300BB160
:1010E000012000E00020032A824601D0072A04DB09
:1010F0002946204600F0D2F93FE12078800601D44D
:101100000D2500E0E569C7F30A560D2D49DA0021E7
:101110004FEA175B08464FF00000002F00F4400034
:1011200007DA00EB80004FF4400100EBD07001EAD9
:1011300060008115012901DD4FF0FF3100224FEAE7
:10114000850CBCF1180F06D31346ACF118004FF014
:101150008052C24003E04FF4801323FA0CF30CF1E9
:101160000C0CBCF1200F04D3ACF1200C09FA0CF0EC
:1011700001E007FA0CF000294FF0004801DD18B932
:101180000FE00ED140450CD319EB02095F4121B9A4
:10119000404502D19F4329EA0209BBEB175F00D00B
:1011A000761C2088000502D57B48784402E07A4806
:1011B0007844193808AA302302F80A30037C0AF16F
:1011C0000101002E0AF1020A53546A4602DC4FF074
:1011D000300101E04FF031014FF001088DF80010AF
:1011E00002D0A6F2FF3603E059EA470100D06B4E69
:1011F000002D02DC2178090704D54FF002082E21CA
:101200008DF80110C44600210BE0C7F303433F01F2
:10121000C35C491C6D1E02F80830052908F101085D
:1012200001DA002DF1DC00210CE000EB1973491C00
:101230001B786D1E082902F808304FEA091908F1D9
:10124000010801DA002DF0DC21688B0602D516E0DA
:10125000A8F10108E04505DD02EB080313F8013CA5
:10126000302BF5D0B8F1000F09DD02EB080313F8BD
:10127000013C2E2B03D1090701D4A8F10108002D50
:1012800005DD3E2102F808106D1E08F10108407CC2
:10129000002E02F8080008F1010804DA2D20764239
:1012A00002F8080002E02B2002F808000A214FF49F
:1012B0007A70864208F101080BDB96FBF0F33033BD
:1012C00002F8083096FBF0F308F1010800FB136602
:1012D00001E0642E0CDB642096FBF0F3303302F85F
:1012E000083096FBF0F308F1010800FB136601E0FB
:1012F0000A2E06DB96FBF1F0303002F8080008F108
:10130000010896FBF1F001FB1060303002F8080094
:10131000A16908F1010808EB050202EB0A00081AAE
:10132000A0612078C00602D42046FFF729F9216A7F
:1013300008AE01EB0A00206204E0D4E9012116F8AE
:10134000010B9047BAF1010AF7D22078C00602D506
:101350002046FFF715F96E4609E016F8010B3E2806
:101360000FD0D4E901219047206A401C2062B8F1D7
:101370000108F2D22046FFF719F909B00320BDE8B1
:10138000F08F206A2844206203E0D4E90121302054
:1013900090476D1EEBD3F8E7A229000002FCFFFF87
:1013A00010B5436913B1AFF3008001E0FFF721F9F5
:1013B000012010BD127800F124010A7000224A7049
:1013C0000122EDE711684FF0FF32E9E710B54369FC
:1013D00013B1AFF3008001E0FFF7A2F9012010BDC7
:1013E000128800F1240182840022C2840122EDE7E8
:1013F00011684FF0FF32E9E770B516460C46054616
:1014000000F040F8036893F80101012806D0FF2C92
:101410000FD8185D68B101202C7070BDD3F807019A
:101420003246214603F2071303442846BDE87040C4
:1014300018474FF0FF3070BD754600F0EBF8AE4630
:1014400005006946534620F00700854618B020B5D0
:10145000FEF76CFFBDE820404FF000064FF000079C
:101460004FF000084FF0000B21F00701AC46ACE84C
:10147000C009ACE8C009ACE8C009ACE8C0098D46B9
:101480007047000010B500F005F8001D10BD00BF4A
:101490002125000000487047CC0100202DE9F041D3
:1014A0001F46044603260168072A01F4006004DB96
:1014B00008B116A505E016A503E008B115A500E0E2
:1014C00015A521F010002060A069C01EA0610FB119
:1014D000401EA0612046FFF753F84FB1D4E9012127
:1014E00038469047206A401C2062C01C206206E0FB
:1014F000206AFAE7D4E9012115F8010B9047761E1E
:10150000F8D22046FFF752F8BDE8F0814E414E0078
:101510006E616E00494E4600696E66002DE9F04727
:10152000814616468AB0354878440DC88DE80D00CE
:1015300032487844801C03AC0DC884E80D0041F6A5
:101540009B300844372190FBF1F290FBF1F5A5F1B7
:10155000800501FB12041B3C02D56442012000E01F
:101560000020DFF898A080460027FA44AAF1BE0ABE
:101570000EE0E0070AD03246684607EB4701012338
:101580000AEB810100F022FB8DE8070064107F1C4C
:10159000002CEED1194F7F44AE3F19E0E80715D07B
:1015A00007EB04100DF1180A90E80E008AE80E000F
:1015B000C068F04201D1981908903246012306A96B
:1015C00003A800F003FB03AB83E807006D10641C65
:1015D000002DE3D14FF0010332466946B8F1000F08
:1015E00003A802D000F0DDFA01E000F0EFFAC9E94B
:1015F0000001C9F808200AB0BDE8F087B426000051
:1016000010B50446AFF300802046BDE81040FEF759
:1016100078BE000000487047AC0100204FF0013C4C
:1016200050F8042B51F8043B9A4221D1A2EB0C0351
:10163000934313EACC1317D150F8042B51F8043B11
:101640009A4215D1A2EB0C03934313EACC130BD1AE
:1016500050F8042B51F8043B9A4209D1A2EB0C0339
:10166000934313EACC13DBD04FF00000704700BF68
:10167000D01A01BAB1FA81F101F0180122FA01F091
:10168000CB40C1F12001DBB2C0B2C01A2CFA01F389
:10169000D11A914311EAC311E6D1704701491820CC
:1016A000ABBEFEE72600020070475FEA400C08BFB1
:1016B00091F0000F4FEA8C234FEAC12243EA5151C7
:1016C0004FEA1C5018BF00F5F0404FEA300018BF39
:1016D00041F000415FEA6C5C00F02980BCF1FF3F03
:1016E00008BF40F080407047130C06BF12044FF053
:1016F000100C4FF0000C130E04BF12020CF1080C7A
:10170000130F04BF12010CF1040C930F04BF9200DD
:101710000CF1020CD30F04BF52000CF1010C114666
:101720004FF00002A0F11F00A0EB0C00704711F079
:10173000004F08BF704731F000413FF4D5AF0B0CAC
:1017400006BF09044FF0100C4FF0000C0B0E04BF45
:1017500009020CF1080C0B0F04BF09010CF1040C79
:101760008B0F04BF89000CF1020CCB0F04BF4900A2
:101770000CF1010CCCF12003A0EB0C0022FA03F3D6
:1017800002FA0CF241EA030100F10100704720F077
:101790007F4C80EA030023F07F47ACEB070303F59F
:1017A0007C5300F0004003F1FF032DE980494FEA2C
:1017B000154B09B44FEA144325EA0B4E24EA0348BB
:1017C0000FF2042606EB132749083E785FEA32023F
:1017D00003FB0667C7F5000707FB06F64FEA543719
:1017E0004FEAD64606F1020607FB066CCCF1005C18
:1017F0004FEA1C472CEA074C07FB06F40CFB06F5E6
:1018000004EB15464FEA961634BF00204FF0004017
:101810004FEAD13706FB07FC4FEA1C4C0CFB0BF7D9
:10182000D21B03FB0CF761EB07010CFB0EF7B0EBCF
:10183000074072EB17420CFB08F734BFA2EB0742DC
:10184000B2EB074261EB17414FEA0C444FEA9107B4
:1018500006FB07FC4FEA1C4C0CFB0BF7B0EBC74038
:1018600072EB573203FB0CF734BFA2EBC742B2EB6B
:10187000C74261EB57310CFB0EF7B0EBC70072EBC0
:1018800057720CFB08F734BFA2EBC702B2EBC702DA
:1018900061EB5771039F4FEA816141EA921104EBBA
:1018A000CC044FEAD1374FEA826206FB07FC42EADA
:1018B00090124FEA80604FEA1C4C0CFB0BF7D21BD6
:1018C00003FB0CF761EB07010CFB0EF7B0EB0740D5
:1018D00072EB17420CFB08F734BFA2EB0742B2EBE6
:1018E000074261EB17414FEA8C554FEA910704EB31
:1018F0009C2406FB07FC4FEA1C4C0CFB0BF7B0EBDF
:10190000C74072EB573203FB0CF734BFA2EBC74260
:10191000B2EBC74261EB57310CFB0EF7B0EBC700DF
:1019200072EB57720CFB08F734BFA2EBC702B2EBA5
:10193000C70261EB577115EB4C254FEA816141EA13
:1019400092114FEA82624FEAD13742EA901206FBC7
:1019500007FC44F100044FEA80604FEA1C4C0CFB8A
:101960000BF7D21B03FB0CF761EB07010CFB0EF727
:10197000B0EB074072EB17420CFB08F734BFA2EB49
:101980000742B2EB074261EB174115EB1C154FEA1A
:10199000813141EA92414FEA823242EA90424FEA73
:1019A00080304FEA0C7644F1000448EA03434EEAE3
:1019B0000B484FF0000EB2EB080C71EB030724BF8D
:1019C000624639464EEB0E0E4FF0000B00185241A6
:1019D00049414BEB0B0BB2EB080C71EB03077BF1AE
:1019E000000B24BF624639464EEB0E0E4FF0000B43
:1019F0000018524149414BEB0B0BB2EB080C71EB59
:101A000003077BF1000B24BF624639464EEB0E0EF6
:101A100051EA020718BF46F0010616EB0E7655F1A3
:101A2000000254F1000103D5BDE88901BDE800883A
:101A3000BDE88901BDE80048B619524141EB0101FA
:101A4000A3F10103704780807F7E7D7C7B7A79786B
:101A5000777676757473727171706F6E6E6D6C6C73
:101A60006B6A6A6968686766666564646363626115
:101A70006160605F5F5E5E5D5D5C5C5B5B5A5A5996
:101A80005958585757565655555554545353525202
:101A90005251515050504F4F4F4E4E4D4D4D4C4C5A
:101AA0004C4B4B4B4A4A4A494949484848474747A3
:101AB00047464646454545444444444343434342E0
:101AC000424242414141002B9C4630D477002BD00A
:101AD0001CB54FEA370703B44FF010004FF0100168
:101AE000BAF1000F06D0BCF1000FDCBF40F00800D7
:101AF00040F008014FF000000FBCBDE810400BF1B2
:101B0000010BBBF1010F08BF5FEA170722BF12F1FB
:101B1000010211F101014FF0004143F1000300F017
:101B2000004043EA00007047F9D35708D0E746EA7F
:101B3000064613F1400F4FEA16461FDD13F1200F42
:101B4000DFBF16430A46002120335B42BED0C3F1FB
:101B5000200746EA064602FA07F74FEA164646EA23
:101B60000706C3F1200722FA03F201FA07F721FA68
:101B700003F14FF0000342EA0702A7E746EA020634
:101B800046EA06464FEA164646EA0106BCBF46EA62
:101B90000646360C4FF000034FF000024FF00001F4
:101BA00094E72DE9804C9A46934670B491E838004A
:101BB00007C831EA400C48BF34EA430C03D5FFF7AD
:101BC000E6FDFFF780FFF0BCBDE8008C2DE9804CFE
:101BD0009A46934670B491E8380007C810F0804FD9
:101BE00008BF13F0804F03D100F005F8FFF76BFF3B
:101BF000F0BCBDE8008C20F07F4780EA030023F0B2
:101C00007F4C07EB0C03A3F57C5300F00040A3F1DD
:101C1000FE0392F0000F00F0B38095F0000F00F08B
:101C200077802DE901494FEA11404FEA144621EA35
:101C3000004800FB06FC24EA064708FB06F607FB03
:101C400008F800FB07F718EB06484CEB164C4FEA78
:101C5000124B18EB07484FEA15464CEB174022EAA7
:101C60000B4E0BFB06FC25EA06470EFB06F607FBB0
:101C70000EFE0BFB07F71EEB064E4CEB164C4FF01F
:101C800000061EEB074E4CEB174B18EB0B0840F110
:101C9000000018EB0E0B58EB000840F100008F1A03
:101CA0004FF000013CBFC943661B14BFB5EB040CE9
:101CB00000213CBFC943F61B4FEA17444EEA8E0E83
:101CC00027EA04454FEA1C4704FB07622CEA074C4D
:101CD00005FB07F70CFB05F604FB0CFC16EB0746AF
:101CE00042EB174216EB0C4642EB1C421BEB06067E
:101CF00058EB0202414146EA9E0601D5BDE8018942
:101D0000B619524141EB0101A3F10103BDE801897C
:101D10004FEA14454FEA114724EA054621EA074CE9
:101D200005FB07F406FB07F70CFB06F105FB0CFCB3
:101D300011EB074144EB17444FEA124711EB0C41FA
:101D400044EB1C4422EA074C05FB07F206FB07F7AD
:101D50000CFB06F605FB0CFC16EB074642EB1742A4
:101D600016EB0C4642EB1C456A1854F1000148BFC3
:101D70007047B619524141EB0101A3F101037047CD
:101D800095F0000F37D04FEA11424FEA144721EA8D
:101D9000024624EA074C02FB07F106FB07F70CFB9F
:101DA00006F402FB0CFC14EB074441EB17414FEA2D
:101DB000154714EB0C4441EB1C4125EA074C02FB90
:101DC00007F506FB07F70CFB06F602FB0CFC16EB0F
:101DD000074645EB174516EB0C4645EB1C4212191E
:101DE00051F1000148BF7047B619524141EB010162
:101DF000A3F1010370474FEA14454FEA114724EA63
:101E0000054621EA074C05FB07F106FB07F70CFB2B
:101E100006F24FF0000605FB0CFC12EB074241EB0B
:101E2000174112EB0C4251EB1C4148BF704792180E
:101E300041EB0101A3F101037047FEE7014800F007
:101E4000B9B80000EC000020014800F0B3B8000071
:101E50004C01002001681823CAB2103AB2FBF3F219
:101E6000054B6FF30901032A9B5CC36500D9091D6B
:101E70008165084670470000DC3A000810B501464D
:101E800000208B698A6A4FF0C07453B1B3F5005FCC
:101E900015D072B1012A0CD0022A0AD0032A09D126
:101EA00004E01AB1012A06D0022A03D1C96AC90185
:101EB00000D5012010BDC96AA142FAD010BD002A88
:101EC000F7D0012AF2D0022AF3D0032AF3D010BDB2
:101ED00030B50468256825F48025256004686360B2
:101EE0008368402B036803D099600068C26030BDEE
:101EF0009A600068C16030BD704772B6FEE72DE998
:101F0000F0410446876D00F0D5FA064694F8350096
:101F10000025022806D08020606584F83450012016
:101F2000BDE8F0812068016821F016010160206899
:101F3000416921F080014161206C08B9A06C20B199
:101F40002068016821F0080101602068016821F023
:101F5000010101600CE000F0ADFA801B052807D9F3
:101F600020206065032084F8350084F83450D7E7DA
:101F700020680068C007EED194F85C103F208840CC
:101F8000B860012084F8350084F834500020C7E799
:101F900090F83510022903D0802141650120704757
:101FA000052180F835100068016821F00101016009
:101FB000002070472DE9F84304464FF00009CDF8A2
:101FC000009063484FF41651A56D0068B0FBF1F71F
:101FD0002E6894F85C10082000FA01F131420FD00D
:101FE00021680A6852070BD50A6822F004020A60C9
:101FF00094F85C108840A860606D40F00100606556
:1020000094F85C104FF0010808FA01F0304208D053
:1020100021684969090604D5A860606D40F0020096
:10202000606594F85C1004208840304208D0216834
:102030000968890704D5A860606D40F004006065F8
:1020400094F85C1010208840304218D0216809684C
:10205000090714D5A86020680168490304D5006801
:10206000000308D5A16C07E00168C90503D4016825
:1020700021F008010160216C09B12046884794F8DD
:102080005C1020208840304231D021680968C906A0
:102090002DD5A86094F8350005282068016806D081
:1020A000490347D5006800031DD4616C1CE021F092
:1020B000160101602068416921F080014161206CB6
:1020C00008B9A06C20B12068016821F00801016006
:1020D00094F85C103F208840A86084F8358084F82C
:1020E0003490216D1FE0E16B09B120468847606D97
:1020F00000282BD0606DC00714D0052084F835006F
:102100002068016821F0010101600098401C0090E6
:10211000B84203D820680068C007F6D184F835803B
:1021200084F83490E16C002910D001B02046BDE85D
:10213000F04308470168C905D5D4016821F01001B2
:10214000016084F8358084F83490CCE7BDE8F883EA
:102150000C0000202DE9F041044600F0ABF90646E2
:102160005CB1022084F83500002584F834502068E2
:10217000016821F0010101600DE00120BDE8F0815E
:1021800000F098F9801B052805D920206065032000
:1021900084F83500F2E720680068C007F0D12268B3
:1021A000116820480140D4E901031843D4E90336FB
:1021B0003343184363691843A3691843E369184319
:1021C000236A18430843616A042903D1D4E90B1335
:1021D00019430843106020684069666A20F00701CF
:1021E00030460E43012704280CD1A06A0643E06A5A
:1021F00040B12046FFF742FE20B14020606584F8E0
:102200003570BAE7206846612046FFF723FE94F850
:102210005C203F2191408160656584F83570002025
:10222000ACE700003F8010F02DE9F0410446866DD8
:1022300090F83400002501280DD0012084F83400E6
:1022400094F835700020012F07D084F8340002255F
:102250002846BDE8F0810220FBE7022784F83570AC
:1022600060652046FFF734FE94F85C103F208840FC
:10227000B0602068016841F016010160206C20B157
:102280002068016841F0080101602068016841F0A0
:1022900001010160DCE7000070B5044600F00AF9B6
:1022A0000546601C02D004480078044400F002F99E
:1022B000401BA042FAD370BD000000202DE9F84F6A
:1022C000DFF8ACA10022012403254FF00F090AF129
:1022D000040BAAF1040E00BF0B6804FA02F63340A7
:1022E000B3426ED10F7907F00307012F01D0022FFF
:1022F00016D187684FEA420805FA08FC27EA0C075E
:10230000D1F80CC00CFA08FC4CEA070CC0F808C065
:102310004768B7430E79C6F3001696403E434660C1
:102320000E79F643B6070AD0C6684FEA420C05FAA2
:102330000CF7BE438F6807FA0CF73743C7600E7976
:1023400006F00306022E10D1D60800EB8608D8F856
:10235000206057074FEAD76C09FA0CF7BE430F69A4
:1023600007FA0CF73743C8F8207006684FEA420CAA
:1023700005FA0CF7BE430F7907F0030707FA0CF7CD
:10238000374307604E6816F4403F6BD0394E3768CC
:1023900047F480473760366822F0030706F480462A
:1023A0000096354E07EB060CDCF8086897074FEAF5
:1023B000177809FA08F7BE43304FB84202D1002718
:1023C0001FE04FE02E4FB84201D1012719E02D4FF9
:1023D000B84201D1022714E02B4FB84201D10327A4
:1023E0000FE02A4FB84201D104270AE0284FB84233
:1023F00001D1052705E0274FB84201D1062700E0AB
:10240000072707FA08F73743CCF80878DAF80060AE
:102410005746D1F804C09E435FEACC2C00D51E433A
:102420003E60DBF800605F46D1F804C09E435FEA7F
:102430008C2C00D51E433E60DEF800607746D1F854
:1024400004C09E435FEA8C3C00D51E433E60084FAB
:10245000083F3E68D1F804C09E435FEACC3C00D5FB
:102460001E433E60521C102AFFF436AFBDE8F88FC1
:10247000083C014044380240003001400000024066
:102480000004024000080240000C0240001002401C
:102490000014024000180240426921EA02030A4087
:1024A00043EA0241816170470AB1816170470904C2
:1024B000FBE7000001488068704700000000002032
:1024C0000248816802781144816070470000002052
:1024D0000B4810B5016841F400710160016841F4D6
:1024E00080610160016841F480710160032000F0A7
:1024F0006FF80F2000F006F800F024F8002010BD5F
:10250000003C024070B50D4D04464FF47A712878B6
:10251000B1FBF0F00A490968B1FBF0F000F074FB80
:1025200048B9102C07D200222146501E00F030F886
:1025300000206C6070BD012070BD00000000002014
:102540000C0000200A4808B5016841F48041016090
:10255000006800F4804000900548001F016841F0C9
:1025600080510160006800F08050009008BD0000BC
:1025700044380240002809DB00F01F02012191408D
:102580004009800000F1E020C0F800117047000011
:10259000F0B40E4B1B680C46C3F30223C3F10705CE
:1025A000042D00D90425191D072901D2002300E0BC
:1025B000DB1E012606FA05F1491E214099409E4086
:1025C000761E16403143F0BC01F007B90CED00E077
:1025D000064900F0070208684FF6FF03184040EA7A
:1025E0000220034A10430860704700000CED00E031
:1025F0000000FA052DE9F8431748016841F08051C1
:1026000001600068154F00F08050012600903E6484
:10261000FFF750FF05464FF47A78114C05E000BFF4
:10262000FFF748FF401B40450DD86068C003F7D551
:102630007E64FFF73FFF0546464607E0FFF73AFF97
:10264000401BB04202D90320BDE8F88360688003D4
:10265000F4D50020F8E700004038024000000E42A8
:10266000007000402DE9F0470E46050065D0DFF808
:102670001481D8F80000F7B200F00F00B04207D282
:1026800088F80070D8F8000000F00F00B04254D174
:1026900028683D4C810712D5400703D5206840F4D7
:1026A000E05020602878000703D5206840F460409F
:1026B00020602068A96820F0F00008432060287896
:1026C000C0072DD0304968680839012812D0022887
:1026D00013D0032811D00968890700292DDA216851
:1026E00021F0030101432160FFF7E4FE814641F23E
:1026F000883A0EE009688903EFE709688901ECE789
:10270000FFF7D8FEA0EB0901514502D90320BDE82F
:10271000F0872068696800F00C00B0EB810FEFD102
:10272000D8F80010404601F00F01B14207D90770F8
:10273000006800F00F00B04201D00120E7E72878E0
:10274000400705D52068E96820F4E0500843206080
:102750002878000706D52068296920F4604040EAFF
:10276000C100206000F038F82168084AC1F3031165
:10277000515CC8400649086006480068FFF7C2FE81
:102780000020C4E7003C024008380240E43A000858
:102790000C00002004000020044805490068096876
:1027A000044AC1F38221515CC84070470C000020EC
:1027B00008380240F43A00080448054900680968EE
:1027C000044AC1F34231515CC84070470C000020FC
:1027D00008380240F43A0008224810B5006810F0AA
:1027E0000C02214815D02149042A11D01D4C241F68
:1027F000082A0FD00C2A0CD12268236802F03F026D
:102800005B0221D52068C0F38810A0FB010120E005
:10281000084610BD2268236802F03F025B0205D51E
:102820002068C0F38810A0FB010104E02168C1F317
:102830008811A1FB00010023FDF78AFD2168C1F387
:102840000141491C49000AE02168C1F38811A1FB3C
:1028500000010023FDF77CFD2168C1F30271B0FB8C
:10286000F1F010BD083802400024F40040787D01EA
:102870002DE9F84F04007DD0DFF878B32078ABF174
:102880000407C007A7F1040550D0DBF80010584634
:10289000C1F3810101290FD00168C1F3810102292F
:1028A00002D13968490207D40068C0F381000328C7
:1028B00009D13868400206D52868800336D560689B
:1028C0000028D8D032E06068B0F5803F10D0B0F575
:1028D000A02F286810D020F480302860286820F4C9
:1028E000802028606068A0B1FFF7E4FD06460CE098
:1028F000286840F48030F4E740F480202860F7E74F
:10290000FFF7D8FD801B642876D828688003F7D5A8
:102910000CE0FFF7CFFD064605E000BFFFF7CAFD5C
:10292000801B6428F0D828688003F7D42078DFF86B
:10293000C89280074FF0000A44D5DBF800105846D3
:1029400011F00C0F0FD00168C1F38101022902D1EF
:102950003968490207D50068C0F3810003280AD10D
:102960003868400207D42868800715D5E068012838
:1029700000D111E03AE1E068B0B10120C9F80000EF
:10298000FFF798FD064604E0FFF794FD801B022840
:10299000BAD828688007F7D52868216920F0F800A0
:1029A00040EAC10028600DE0C9F800A0FFF782FDF1
:1029B000064604E0FFF77EFD801B02281CD828682D
:1029C0008007F7D42078000727D5DFF828828B48C6
:1029D000616908F16C0881B101210160FFF76AFDAE
:1029E000064604E0FFF766FD801B022804D8D8F8ED
:1029F00000008007F6D510E089E0C0F800A0FFF7DE
:102A000059FD064605E000BFFFF754FD801B022874
:102A10007DD8D8F800008007F6D42078400769D523
:102A200074484FF0000838300068C0000BD471487B
:102A30003830016841F08051016000684FF00108B2
:102A400000F0805000906E4E3068C00511D43068A0
:102A500040F480703060FFF72DFD009006E000BF6D
:102A6000FFF728FD0099401A022850D83068C005A9
:102A7000F6D5604EA068683601280FD0052830686A
:102A800010D020F001003060306820F00400306089
:102A9000A068B8B1FFF70EFD00900FE0306840F07D
:102AA0000100F4E740F004003060F7E7FFF702FDB3
:102AB0000099411A41F28830814264D83068800719
:102AC000F4D50EE0FFF7F6FC009007E0FFF7F2FC0C
:102AD0000099411A41F28830814254D83068800709
:102AE000F4D4B8F1000F05D042483830016821F025
:102AF00080510160A069A8B3DBF80010C1F3810127
:102B0000022947D00228C9F860A005D000E03AE0C9
:102B1000FFF7D0FC044639E0FFF7CCFC064604E0A2
:102B2000FFF7C8FC801B02282DD828688001F7D445
:102B3000F4E907010843E168324A490802EB014120
:102B4000A26841EA82110843217C40EA0160217DAC
:102B500040EA017038600120C9F86000FFF7AAFC64
:102B6000044606E044E000BFFFF7A4FC001B022877
:102B700009D828688001F7D53AE000BFFFF79AFC32
:102B8000001B022802D90320BDE8F88F28688001C5
:102B9000F4D42DE00128F7D03868E26900F4800110
:102BA000914223D1226A00F03F0191421ED147F6A3
:102BB000C071626A0140B1EB821F17D1A26A4FF067
:102BC000FF3300F4403103EB5202B1EB024F0DD161
:102BD00094F82C2000F07061B1EB026F06D194F8EC
:102BE000301000F0E040B0EB017F01D00120CBE7D6
:102BF0000020C9E70838024000004742800E4742E3
:102C0000007000400000FFFF10B5401EB0F1807F53
:102C100001D3012010BD4FF0E02460610F21601747
:102C200000F0DBFD0020A06107202061002010BD26
:102C300038B5044690F84200202801D0022038BD63
:102C400061B15AB10120206300206063204600F08A
:102C500023FD0028F3D1216B012901D0012038BDCB
:102C600021680A684968009121680C3151E8002FF9
:102C700042F0100241E80023002BF5D138BD704727
:102C800070470000F8B5016804460868CA684B69D7
:102C900010F00F0F4FF0000559D003F0010602F4B9
:102CA0009077374365D0C10705D0D10503D5616C56
:102CB00041F001016164410705D5D90703D0616C7A
:102CC00041F002016164810705D5D90703D0616C29
:102CD00041F004016164010707D502F0200131438E
:102CE00003D0616C41F008016164616C00293AD045
:102CF000800604D5900602D5204600F0E5FB20684A
:102D00004069616CC0F38010090700D460B32046AD
:102D100000F08DFB20684069400621D52068143002
:102D200050E8001F21F0400140E80012002AF5D1D0
:102D3000E06BA8B16E490165E06BFFF729F9002847
:102D400011D0E06B016D01B0BDE8F040084783068B
:102D50000FD593060DD52046BDE8F84000F0B4BB72
:102D60002046FFF78DFFF8BD2046FFF789FF656419
:102D7000F8BD266B2023012E7DD1C6067BD5D60655
:102D800079D508684868009048694FF00206400607
:102D900041D5E16B086840680004000CE8D0A28DC2
:102DA0008242E5D9E085C869B0F5807F2DD02068E2
:102DB0000C3050E8001F21F4807140E80012002A16
:102DC000F5D12068143050E8001F21F0010140E8DF
:102DD0000012002AF5D12068143050E8001F21F0BD
:102DE000400140E80012002AF5D184F84230256302
:102DF00020680C3050E8001F21F0100140E800125C
:102E0000002AF5D1E06BFFF77AF86663A08DE18DBB
:102E1000401A81B22AE0A08DE18D401A81B2E08D86
:102E20000028A5D00029A3D022680C3252E8000F58
:102E300020F4907042E80007002FF5D1206814308C
:102E400050E8002F22F0010240E80027002FF5D1C2
:102E500084F84230256320680C3050E8002F22F0BF
:102E6000100240E80023002BF5D166632046FFF7EF
:102E700006FFF8BDFFE705062BD5150629D594F802
:102E800041002128F5D1A068B0F5805F01D120690B
:102E9000B0B1206A411C2162216800784860E08C52
:102EA000401E0004000CE084E3D12068C16821F0DA
:102EB0008001C1602068C16841F04001C160D8E76D
:102EC000206A0088C0F308004860206A801C2062E5
:102ED000E5E74006CDD55006CBD5CA68204622F09E
:102EE0004002CA6084F8413000F06AF9C1E700008E
:102EF000E532000870B5040004D094F841000025C4
:102F000010B106E0012070BD84F84050204600F06A
:102F100023F8242084F841002068C16821F400517E
:102F2000C160204600F032FB2068016921F4904125
:102F300001612068416921F02A0141612068C1686E
:102F400041F40051C1606564202084F8410084F898
:102F500042006563002070BD2DE9F04186B0064651
:102F600014216846FDF7E2FADFF800C131684048F5
:102F70000222032307273F4D002461451DD13C4910
:102F800014310E6846F010060E60096801F0100159
:102F90000591016841F0010101600068694600F097
:102FA0000100059058028DE81500CDE90337284649
:102FB000FFF784F906B0BDE8F081DFF8BCC06145D9
:102FC000F8D12B491031D1F800C04CF4003CC1F8C5
:102FD00000C0096801F400310591016841F0010168
:102FE00001600068694600F0010005900C208DE842
:102FF0001500CDE903372846FFF760F9204D1F483B
:103000004FF000672860C5E901744FF48068C5E996
:1030100003486C61F812AC61C5E9074028466C6250
:10302000FFF798F808B1FEF768FFF563AE63134841
:10303000144D1830E5E802074020A5E811011148B9
:1030400045F81449AC61EC612C626C62FFF782F8C0
:1030500008B1FEF752FFB563002211462620AE6389
:10306000FFF796FA2620FFF785FAA3E70010014044
:1030700030380240000002400044004088600240B6
:10308000EC0000204C01002090F84230202B01D0B1
:103090000220704721B11AB10023036300F0FCBA8B
:1030A00001207047704770472DE9F843044690F8B7
:1030B0004100984616460D46202802D00220BDE861
:1030C000F88385B17EB100206064212084F841003E
:1030D000FFF7F0F9A6848146E684A0682027B0F5C2
:1030E000805F02D003E00120E9E7206910B12E469D
:1030F00000250EE000260CE08021204600F014FBA5
:10310000A8B9C6B116F8010B21684860E08C401ED2
:10311000E084E08C4B464FF00002CDF800800028A0
:10312000EAD14FF04001204600F0FEFA40B184F8A9
:1031300041700320C3E735F8020BC0F30800E3E752
:1031400084F841700020BAE770B5044690F8410059
:10315000202801D0022070BD49B342B32162A2846D
:10316000E28400206064212384F84130A56B114B78
:10317000EB63A56B104B2B64A56B104BEB64A36B3F
:103180001865256813462A1DA06BFFF74DF82168C6
:103190006FF0400008602068143050E8001F41F0D4
:1031A000800140E80012002AF5D1002070BD012006
:1031B00070BD0000E333000825340008F532000834
:1031C00070477047FEE7000070B586B0142168466E
:1031D000FDF7ACF912480024016841F004010160D8
:1031E000016801F004010591016841F001010160ED
:1031F00000680C4E00F001004FF400550590224687
:1032000029463046FFF750F901200095CDE9010429
:10321000694630460394FFF751F806B070BD0000D0
:103220003038024000080240FEE7FEE77047704772
:10323000FFF746B930B593B034216846FDF776F90B
:1032400014210DA8FDF772F920480025016841F00E
:1032500080510160006800F0805012901C480168A5
:1032600041F4404101600068022400F440401290A3
:103270000120039010200490009406940820CDE9CA
:103280000750B420CDE909040B9468460C94FFF76D
:10329000EFFA08B172B6FEE7FFF7ACF908B172B603
:1032A000FEE70DA90F2081E831004FF4A0501090E7
:1032B0004FF48050119005210DA8FFF7D3F9002895
:1032C00001D072B6FEE713B030BD000040380240B6
:1032D000007000400248016841F4700101607047CD
:1032E00088ED00E010B5806B0021C185C184FFF737
:1032F000C7FC10BD70B5846B2068406994F841101C
:10330000C0F3C0100025212904D118B1E58420465E
:1033100000F0B4F82068406994F84210C0F38010BF
:10332000222904D118B1E585204600F080F8606CB0
:1033300040F0100060642046FFF7A2FC70BD10B59D
:103340000146806B096809684FF00002C9052ED458
:10335000C28501680C3151E8003F23F4807341E8D5
:103360000034002CF5D10168143151E8003F23F0FE
:10337000010341E80034002CF5D10168143151E813
:10338000003F23F0400341E80034002CF5D1202118
:1033900080F84210016B012909D101680C3151E814
:1033A000003F23F0100341E80034002CF5D14263C4
:1033B000016B012902D0FFF775FE10BD818DFFF76B
:1033C0005EFC10BD10B5806B01214163016B0129CA
:1033D00002D0FFF768FE10BD818D4908FFF74FFC52
:1033E00010BD10B50146806B09680968C90516D47F
:1033F0000021C1840168143151E8002F22F08002BD
:1034000041E80023002BF5D101680C3151E8002F71
:1034100042F0400241E80023002BF5D110BDFFF738
:10342000CFFE10BD10B5806BFFF7CBFE10BD01685D
:103430000C3151E8002F22F4907241E80023002B58
:10344000F5D10168143151E8002F22F0010241E862
:103450000023002BF5D1016B012909D101680C3142
:1034600051E8002F22F0100241E80023002BF5D193
:10347000202180F8421000210163704701680C315F
:1034800051E8002F22F0C00241E80023002BF5D1C3
:10349000202180F8411070470FB400B5A1B023AAD5
:1034A00068462299FCF7CCFF6846FCF7DBFF82B246
:1034B0004FF0FF3369460348FFF7F6FD21B05DF892
:1034C00014FB00003C00002008B590F842102229AF
:1034D00001D0022008BD82684FF480539A4201D186
:1034E000016921B1816A9A421BD04AB10AE002689F
:1034F000816A5268C2F308020A80816A891C08E066
:10350000026972B10268526802F07F020A70816A31
:10351000491C8162C18D491E0904090CC18503D073
:103520001BE002685268F1E70168CA6822F02002D5
:10353000CA600168CA6822F48072CA6001684A6978
:1035400022F001024A61202180F8421000214163EB
:10355000026B012A03D0FFF7A5FD002008BD01631F
:1035600001680C3151E8002F22F0100241E80023DD
:10357000002BF5D101680A68D20602D50A684968AD
:103580000091818DFFF77BFBE7E7000070B50446F3
:1035900000680169E26821F4405111430161216929
:1035A000A068E26908436169114308432168CA6859
:1035B00049F20C639A430243CA6020684169A269D8
:1035C00021F440711143416131492068884202D0A1
:1035D0003049884202D1FFF7EFF801E0FFF7DCF84D
:1035E000E2690023192164253226B2F5004F626892
:1035F00028D0A0FB0101930F9200FCF7A9FE014621
:10360000B0FBF5F06FF01802504301EB800006EBC1
:103610000010B0FBF5F000F0F002B1FBF5F002EBAA
:103620000012B1FBF5F06FF01803584301EB800076
:1036300006EB0010B0FBF5F000F00F00216810441D
:10364000886070BDA0FB010192185B41FCF780FE11
:103650000146B0FBF5F00201B1FBF5F06FF0180385
:10366000584301EB800006EBC000B0FBF5F000F022
:10367000F80002EB4002B1FBF5F0584301EB80008B
:1036800006EBC000B0FBF5F000F00700D6E7000045
:10369000001001400014014038B581620446828563
:1036A000002013466064222284F84220E56B1B4A06
:1036B000EA63E56B1A4A2A64E56B1A4AEA64E26B2C
:1036C00010650A462168E06B091DFEF7ADFD206814
:1036D000016840680090206948B120680C3050E8CB
:1036E000001F41F4807140E80012002AF5D12068E3
:1036F000143050E8001F41F0010140E80012002A98
:10370000F5D12068143050E8001F41F0400140E836
:103710000012002AF5D1002038BD00003F33000818
:10372000C5330008F53200082DE9F84398461746DE
:103730000D460446089E24E0701C22D0FEF7BAFE17
:10374000A0EB0800B0421AD8CEB12068C168490782
:1037500017D5802D15D0402D13D00168C943090716
:103760000FD401680025406800902046FFF75FFEF7
:103770000820606484F840500120BDE8F8830320ED
:10378000FBE72068006835EA000004D00020B8425A
:10379000D2D00020F1E70120F9E700000148FFF74F
:1037A00071BA000084000020FEE703B401984100D4
:1037B000009850EAC12018BF04204A0D18BF40F0FD
:1037C000010040F2FF72B2EB515F08BF40F002000F
:1037D000012808BF052002B070470907090E00281C
:1037E00004DB00F1E02080F80014704700F00F00C7
:1037F00000F1E02080F8141D704730380A2801D20B
:10380000012070470020704788B0FEF761FEFFF787
:1038100011FDFFF7D9FC52480024016841F4001162
:1038200001600068224600F400100090214610203C
:10383000FEF7AEFE1020FEF79DFE0022114611207D
:10384000FEF7A6FE1120FEF795FE474845494FF4C6
:10385000E1350160C0E901540C26C460C0E90446AA
:103860008461C461FFF746FB08B172B6FEE73E48CB
:103870003E4948380160C0E90154C460C0E90446CB
:103880008461C461FFF736FB08B172B6FEE73649C2
:10389000152274393448FFF7CBF933495A2048319F
:1038A000B1EE000A08703C3910EE100AF1EE040A7D
:1038B00041F83D0F10EE900A48602B4915227439EB
:1038C0002948FFF7E1FB28490020743901F115026E
:1038D0000B185B781354401CC0B21428F8D322494B
:1038E00014225F3901F1B300FCF7DBFD4FF4005106
:1038F0001F48FEF7D1FD1C49092248311A48FFF73D
:1039000023FC6420FEF7C8FC17485430006900F01F
:103910006BF8824614488B465430C06800F064F857
:103920008046114889465430806800F05DF80646AC
:103930000D480F465430406800F056F804460A48D7
:103940000D465430006800F04FF88DE8F00F41EC60
:10395000100B08A053EC102BFFF79EFDADE7000005
:103960003038024000440040840000200010014034
:103970000008024025662C25662C25662C25662C21
:1039800025660A0010B500290AD00878002807D05B
:1039900005487844FDF742FE002801D0002010BD04
:1039A0000248784410BD0000860200007E0200003C
:1039B00010B500290AD00878002807D005487844B7
:1039C000FDF72CFE002801D0002010BD02487844ED
:1039D00010BD0000760200006E0200000808A0F58D
:1039E00000114FEA3101704743004FEAD30C4FEA10
:1039F0003C0C43401FBF40070CF1605113F0FE4FD9
:103A000070471CF0006F03D100200CF0004170479C
:103A10000CF0004343EA507010B540EACC0000F0CF
:103A20000EF800BF000000924FEA0001FFF7D6BF7A
:103A30004FF000414FF00000A1F5002170470EF15A
:103A4000020E2EF0030E5EF8044B244204D44FEA1B
:103A50004102B2F17F4F11D84FEA4003B3F17F4FDB
:103A60000CD80ED14FEAD07CB2F17F4F0CEB4C0C4E
:103A70000CF1020C08BF4CEBD17C04E04FF0080CB9
:103A800001E04FEAD17C0CEB4C0324FA03F404F080
:103A90000704B4F1040C06D20EEB840CBDE8104010
:103AA0004CF0010C6047DFE80CF0070802024FF011
:103AB0000040A0F5800010BD0846420018BFD2F1BA
:103AC000807288BF00F0004010BD4FF04070E1EE02
:103AD000100A7047FDF7AFB9FDF7E4BA00061016FB
:103AE00000061016000000000000000001020304A0
:103AF000060708090000000001020304000000009E
:103B00000000000030313233343536373839414225
:103B1000434445464030580030313233343536372F
:103B200038396162636465664030780004000008DB
:103B300000000000000000020001000010303132DF
:103B400033343536373839616263646566787000BE
:103B500030313233343536373839414243444546C3
:103B60005850000002400000000000A000000000CB
:103B700005400000000000C8000000000C400000EC
:103B80000000409C00000000194000000020BCBE66
:103B90000000000034400000BFC91B8E000000047C
:103BA000B5400000504BCFD06607E2CF01000000C7
:103BB0006C4100003E8251AADFEEA73401000000F4
:103BC000D9420000DCB5A0E23A301F97FFFFFFFFAB
:103BD000B4450000FD25A0C8E9A3C14FFFFFFFFFCA
:103BE000FF3F00000000008000000000FF3F0000D9
:103BF0000000008000000000443D0008000000209C
:103C00001000000000020008543D000810000020D1
:103C1000000800001C0200081C0000004300000017
:103C2000F8FFFFFF0C0000000E0000000F00000076
:103C30002E0000001001000043000000F8FFFFFF0D
:103C400000404040404040404040414141414140AF
:103C50004040404040404040404040404040404064
:103C600040050202020202020202020202020202F3
:103C700002202020202020202020200202020202F8
:103C80000202909090909090101010101010101050
:103C9000101010101010101010101010020202025C
:103CA00002028888888888880808080808080808A0
:103CB000080808080808080808080808020202029C
:103CC00040000000000000000000000000000000B4
:103CD00000000000000000000000000000000000E4
:103CE00000000000000000000000000000000000D4
:103CF00000000000000000000000000000000000C4
:103D000000000000000000000000000000000000B3
:103D100000000000000000000000000000000000A3
:103D20000000000000000000000000000000000093
:103D30000000000000000000000000000000000083
:103D40000000000001000000100000000000000062
:043D50000024F40057
:04000005080001C529
:00000001FF
